:020000040800F2
:10000000E8100020DD0D0008590E0008590E000808
:10001000590E0008590E0008590E00080000000093
:10002000000000000000000000000000590E000861
:10003000590E000800000000551C0008F11F0008C0
:10004000590E0008590E0008590E0008590E0008F4
:10005000590E0008590E0008590E0008590E0008E4
:10006000590E0008590E0008590E0008590E0008D4
:10007000590E0008590E0008590E0008590E0008C4
:10008000590E0008590E0008590E0008590E0008B4
:10009000590E0008590E0008590E0008590E0008A4
:1000A000590E0008590E0008590E0008590E000894
:1000B000590E0008590E0008590E0008590E000884
:1000C000590E0008590E0008590E0008590E000874
:1000D000590E0008590E0008590E0008590E000864
:1000E000590E0008590E0008590E0008590E000854
:1000F000590E0008590E0008590E0008590E000844
:10010000590E0008590E0008590E0008590E000833
:10011000590E0008590E0008590E0008590E000823
:10012000590E0008590E0008590E0008590E000813
:10013000590E0008590E0008590E0008590E000803
:10014000590E0008590E0008590E0008590E0008F3
:10015000590E0008590E0008590E0008590E0008E3
:10016000590E0008590E0008590E0008590E0008D3
:10017000590E0008590E0008590E0008590E0008C3
:10018000590E0008590E0008590E0008590E0008B3
:10019000590E0008590E0008590E0008590E0008A3
:1001A000590E0008590E0008590E000880B400AF1F
:1001B00040F23802C2F2000240F20413C2F200031D
:1001C0001A6040F23803C2F2000303F1C80240F2A1
:1001D0000413C2F200035A6040F20013C2F200039B
:1001E00040F23802C2F200021A6040F20013C2F27A
:1001F00000031B684FF000021A6040F20013C2F2C5
:1002000000031B684FF000025A6040F20013C2F274
:1002100000031B684FF000029A60BD4680BC704727
:1002200080B500AF40F20D13C2F200031B78DBB2C1
:10023000012B1AD140F27C33C2F200031B78012B50
:1002400001D100F0D3FE40F20E13C2F200031B787E
:10025000DBB2012B01D100F015FC40F20D13C2F20C
:1002600000034FF000021A700DE040F20D13C2F2CD
:1002700000031B78DBB203F1FF33DAB240F20D1357
:10028000C2F200031A7080BD80B400AF40F20D13BB
:10029000C2F200031B78DBB203F10103DAB240F2D1
:1002A0000D13C2F200031A70BD4680BC704700BF38
:1002B00080B500AFFFF7B4FF80BD00BF80B500AFD1
:1002C0004EF21403CEF2000347F23F72C0F21B025B
:1002D0001A604EF21003CEF200034FF007021A60CC
:1002E0004EF61C53CEF200034EF61C52CEF2000224
:1002F000126842F07F421A604EF62053CEF200039D
:100300004EF62052CEF2000212686FEA02426FEA05
:1003100012421A6000F08EFA01F086F9FFF746FFEC
:1003200040F20D13C2F200031B78DBB203F10103AC
:10033000DAB240F20D13C2F200031A7042F26910F1
:10034000C0F600004FF000014FF46952034B00F07B
:1003500099FC024801F06EFC80BD00BF3403002010
:1003600080B500AF40F24433C2F2000340F24812BD
:10037000C2F200021A6040F24433C2F200031A686B
:1003800040F24033C2F200031A6040F24433C2F23A
:1003900000031B684FF001025A7140F24433C2F26D
:1003A00000031B68184600F01BFBFFF739FF80BDF8
:1003B00090B587B000AF0346FB71F97940F2101297
:1003C000C2F200020B464FEA43035B184FEAC30335
:1003D000D31803F104031B68FB60FB68002B00F0DB
:1003E000458140F20D13C2F200031B78DBB203F12A
:1003F0000103DAB240F20D13C2F200031A7040F2A8
:100400004013C2F200031B68002B11D1FA79134686
:100410004FEA43039B184FEAC30340F21012C2F2A3
:1004200000029A1840F24013C2F200031A601AE167
:1004300040F24013C2F200031B687B61FB683B6122
:100440000DE13A697B695B68D31A3B613B69002B1C
:1004500080F2CC807B695B69002B3ED07B69596957
:10046000FA7913464FEA43039B184FEAC30340F25D
:100470001012C2F200029B180B61F9797B6958696E
:1004800040F21012C2F200020B464FEA43035B181F
:100490004FEAC303D31803F114031860F97940F24B
:1004A0001012C2F200020B464FEA43035B184FEAF8
:1004B000C303D31803F110037A691A60FA7913465B
:1004C0004FEA43039B184FEAC30340F21012C2F2F3
:1004D00000029A187B695A6136E0F97940F24013BC
:1004E000C2F20003186840F21012C2F200020B467A
:1004F0004FEA43035B184FEAC303D31803F1100319
:10050000186040F24013C2F200031968FA791346EA
:100510004FEA43039B184FEAC30340F21012C2F2A2
:1005200000029B184B61FA7913464FEA43039B186C
:100530004FEAC30340F21012C2F200029A1840F2CE
:100540004013C2F200031A60F979F87940F21012F0
:10055000C2F2000203464FEA43031B184FEAC303EB
:10056000D31803F110031B685A683B69D01840F296
:100570001012C2F200020B464FEA43035B184FEA27
:10058000C303D31803F104031860F97940F2101281
:10059000C2F200020B464FEA43035B184FEAC30363
:1005A000D31803F110031868F97940F21012C2F25F
:1005B00000020B464FEA43035B184FEAC303D3180C
:1005C00003F110031B685C68F97940F21012C2F263
:1005D00000020B464FEA43035B184FEAC303D318EC
:1005E00003F104031B68E31A43603CE03B69002B02
:1005F00032DB7B691B69002B2ED1F97940F2101296
:10060000C2F200020B464FEA43035B184FEAC303F2
:10061000D31803F114037A691A60FA7913464FEA82
:1006200043039B184FEAC30340F21012C2F20002C8
:100630009A187B691A61F979386940F21012C2F28E
:1006400000020B464FEA43035B184FEAC303D3187B
:1006500003F10403186006E07B691B697B617B6919
:10066000002B7FF4EEAEFFF7DBFD00E000BF07F1EB
:100670001C07BD4690BD00BF80B584B000AF0346E7
:10068000FB71FA7913464FEA43039B184FEAC30301
:1006900040F21012C2F200029B18FB6040F20D13F0
:1006A000C2F200031B78DBB203F10103DAB240F2BD
:1006B0000D13C2F200031A70FB685B69002B0BD1AB
:1006C000FB681B69002B07D140F24013C2F2000304
:1006D0004FF000021A6049E0FB685B69002B1CD1F7
:1006E000FB681A6940F24013C2F200031A6040F23C
:1006F0004013C2F200031B684FF000025A61FB680E
:100700001B69FA6812695168FA6852688A185A6057
:10071000FB684FF000021A6128E0FB681B69002BA0
:1007200009D1FB685B694FF000021A61FB684FF06A
:1007300000025A611AE0FB685B69FA6812691A6183
:10074000FB681B69FA6852695A61FB681B69FA68A1
:1007500012695168FA6852688A185A60FB684FF04B
:1007600000021A61FB684FF000025A61FFF758FD62
:1007700007F11007BD4680BD80B582B000AF40F2E2
:100780004013C2F200031B687B602BE07B685B7840
:10079000002B0CD17B681B781846FFF76DFF7B6838
:1007A0004FF001029A707B68DB68984714E07B6821
:1007B0005B78012B10D17B681B781846FFF75CFF34
:1007C0007B689A687B685A607B681B781846FFF7DD
:1007D000EFFD7B68DB68984740F24013C2F20003EC
:1007E0001B687B607B68002B03D07B685B68002BF9
:1007F000CCD007F10807BD4680BD00BF80B500AF73
:1008000040F20D13C2F200031B78DBB2012B0ED9AC
:1008100040F27C33C2F200034FF001021A7040F242
:100820007E33C2F200034FF001021A7001E0FFF7BD
:10083000A3FF80BD80B485B000AF40F24813C2F280
:100840000003BB60194B7B604FF00003FB7315E0A6
:10085000BB68FA7B9A71BB684FF003025A71BB68A0
:100860007A685A62BB6803F12C03BB607B6803F1B2
:100870002C037B60FB7B03F10103FB73FB7B042BED
:10088000E6D9BB68FA7B9A71BB684FF000025A62E6
:1008900040F23833C2F2000340F24812C2F20002C2
:1008A0001A6007F11407BD4680BC70477401002030
:1008B00080B487B000AF78607B681B79FB737B687E
:1008C0004FF000025A7140F24433C2F200031B6839
:1008D0003B613B691B79FA7B9A422AD13A697B6872
:1008E0009A4226D03B69002B23D040F24833C2F213
:1008F0000003D3E9000140F2E043C2F20003D3E970
:100900000023994208BF904213D23B6959898AB2A9
:100910004FF0000340F2E041C2F20001D1E90001D2
:10092000801841EB030140F24833C2F20003C3E9EF
:10093000000140F23C33C2F200031B683B613B699B
:10094000002B0DD140F20E13C2F200034FF0010252
:100950001A7040F23C33C2F200037A681A603AE03F
:100960003B691B79FA7B9A4213D240F20E13C2F212
:1009700000034FF001021A707B683A695A623B69C2
:100980007A689A6240F23C33C2F200037A681A60D5
:1009900021E03B695B6A7B6109E07B691B79FA7B3B
:1009A0009A4208D37B693B617B695B6A7B617B69A7
:1009B000002BF2D100E000BF7B687A695A623B6984
:1009C0007A685A627B683A699A627B69002B02D026
:1009D0007B697A689A6207F11C07BD4680BC704744
:1009E00080B483B000AF78607B685B6A002B0BD16A
:1009F0007B689B6A002B07D140F23C33C2F20003B4
:100A00004FF000021A6037E07B689B6A002B13D11D
:100A10007B685A6A40F23C33C2F200031A607B687A
:100A20004FF000025A6240F23C33C2F200031B68EE
:100A30004FF000029A621FE07B685B6A002B09D1CD
:100A40007B689B6A4FF000025A627B684FF000029D
:100A50009A6211E07B689B6A7A68526A5A627B6884
:100A60005B6A7A68926A9A627B684FF000025A6207
:100A70007B684FF000029A6207F10C07BD4680BC0C
:100A8000704700BF80B584B000AF40F24433C2F27B
:100A900000031B68FB6040F23C33C2F200031B689A
:100AA000BB60BB68002B00F0B08040F24033C2F264
:100AB00000031B68FA689A4240F0A78040F20D13C9
:100AC000C2F200031B78DBB2012B00F29E8040F2E1
:100AD0000C13C2F200031B78DBB2002B40F09580B0
:100AE00040F20E13C2F200034FF000021A70FB68CE
:100AF0001B79FB71BB681B79BB71FB685B79012BB0
:100B00000DD040F24033C2F20003BA681A60BB68ED
:100B10004FF001025A71B868FFF762FF38E0BA7906
:100B2000FB799A4210D240F24033C2F20003BA6815
:100B30001A60F868FFF7BCFEB868FFF751FFBB68A2
:100B40004FF001025A7123E0FA79BB799A425ED1E3
:100B500040F24833C2F20003D3E9000140F2E0431F
:100B6000C2F20003D3E90023994208BF90424ED15C
:100B700040F24033C2F20003BA681A60F868FFF727
:100B800097FEB868FFF72CFFBB684FF001025A715F
:100B900040F24033C2F200031B681A7940F23C3342
:100BA000C2F200031B681B799A4217D140F240330E
:100BB000C2F200031B6859898AB24FF0000340F269
:100BC000E041C2F20001D1E90001801841EB0301CC
:100BD00040F24833C2F20003C3E90001FB681A681F
:100BE000FB68DB689A4208D3FB68DB681A684AF244
:100BF000A553C5F65A239A4204D0FB689B79184640
:100C000001F0B8FA01F01CF802E000BF00E000BFFC
:100C100007F11007BD4680BD80B582B000AF40F23D
:100C20000D13C2F200031B78DBB203F10103DAB249
:100C300040F20D13C2F200031A7040F23833C2F2D0
:100C400000031B68002B04D1FFF7EAFA4FF0000302
:100C500013E040F23833C2F200031B687B6040F2BD
:100C60003833C2F200031B685A6A40F23833C2F2CA
:100C700000031A60FFF7D4FA7B68184607F10807EB
:100C8000BD4680BD80B588B000AFF860B9607A60BD
:100C90003B607A684FF47F43C0F20F0313404FEA82
:100CA0001323BB837B68FB76FB68002B02D14FF0DC
:100CB000FF038DE03B68002B02D14FF0FF0387E07C
:100CC000FB7E402B02D94FF0FF0381E0BB8B132B3F
:100CD00002D84FF0FF037BE0F868B9683A6801F08A
:100CE00051F97861FFF798FF38613B69002B02D119
:100CF0004FF0FF036CE03B697A691A603B69FA7E4A
:100D00001A71BA8B13464FEA83739B1A4FEA830317
:100D100003F104033A68D2183B69DA603B69DA6888
:100D20004AF2A553C5F65A2313603B694FF0FF32D0
:100D30001A623B694FF000025A623B694FF00002B1
:100D40009A627A684FF00003C7F6FF7313404FEAC8
:100D50001353FB83FB8B002B02D14FF00A03FB8361
:100D60003B69FA8B5A813B694FF00002DA613B69BB
:100D70004FF0FF021A723B694FF000021A613B69A3
:100D80004FF000025A613B694FF000029A613B69E3
:100D90004FF0FF02DA717B68002B13DB40F20D137A
:100DA000C2F200031B78DBB203F10103DAB240F2B6
:100DB0000D13C2F200031A703869FFF779FDFFF7CF
:100DC0002FFA03E03B694FF002025A713B699B79AD
:100DD000184607F12007BD4680BD00BF80B582B030
:100DE00000AF42F28013C0F600037B6040F20003C4
:100DF000C2F200033B600BE07B681A683B681A6034
:100E00003B6803F104033B607B6803F104037B60F0
:100E10003A6840F23403C2F200039A42ECD30B4822
:100E20000B494FF000028842B8BF40F8042BFFF690
:100E3000FAAFDFF82000016841F47001016000F0B2
:100E400083F907F10807BD4680BD00003800002087
:100E5000E808002088ED00E080B400AFFEE700BFA6
:100E600080B584B000AF4FF00003FB7362E0F97B04
:100E700040F20002C2F200020B464FEA83035B1805
:100E80004FEA8303D31803F10C031B6818464FF095
:100E9000010100F0BFF9F97B40F20002C2F200024A
:100EA0000B464FEA83035B184FEA8303D31803F121
:100EB00008031B887B604FF001033B724FF0000377
:100EC000BB724FF00103FB724FF002037B72F97BA0
:100ED00040F20002C2F200020B464FEA83035B18A5
:100EE0004FEA8303D31803F104031A6807F10403DC
:100EF0001046194600F0A4FCF97B40F20002C2F251
:100F000000020B464FEA83035B184FEA8303D318B2
:100F100003F110031B78002B04D1FB7B184600F073
:100F200011F803E0FB7B184600F036F8FB7B03F179
:100F30000103FB73FB7B012B99D907F11007BD4619
:100F400080BD00BF80B483B000AF0346FB71F97968
:100F500040F20002C2F200020B464FEA83035B1824
:100F60004FEA8303D31803F104031868F97940F2B8
:100F70000002C2F200020B464FEA83035B184FEAFD
:100F80008303D31803F108031B88438307F10C077D
:100F9000BD4680BC704700BF80B483B000AF03463D
:100FA000FB71F97940F20002C2F200020B464FEAEF
:100FB00083035B184FEA8303D31803F10403186813
:100FC000F97940F20002C2F200020B464FEA8303B5
:100FD0005B184FEA8303D31803F108031B880383CC
:100FE00007F10C07BD4680BC704700BF80B582B0DA
:100FF00000AF40F27D33C2F200031B78012B08D111
:1010000000F0B2FA40F27D33C2F200034FF000026A
:101010001A7040F27E33C2F200031B78012B73D1A9
:10102000FFF7AAFB40F27E33C2F200034FF000024A
:101030001A7069E000F0F6FD40F25033C2F200038E
:101040005B7840F25032C2F200024FEAC303D31879
:101050003A4603F1040393E8030082E8030040F2F8
:101060005033C2F200035B7803F1010146F267637B
:10107000C6F2666383FB01234FEA63024FEAE17322
:10108000D21A13464FEA83039B18CA1AD2B240F20F
:101090005033C2F200035A7040F25033C2F20003E0
:1010A0001B7803F1FF33DAB240F25033C2F200038F
:1010B0001A7000F0AFFD3B7803F1FF33032B25D806
:1010C00001A252F823F000BFD9100008E310000875
:1010D000F1100008FB1000087B78184600F0FCFFB8
:1010E00015E07A787B681046194600F0BDF80EE0EE
:1010F0007B78184600F03AFE09E07A787B68104663
:10110000194600F0CDFD02E000BF00E000BF40F254
:101110005033C2F200031B78002B8BD100F082FD0C
:1011200040F25033C2F200031B78002B06D140F28C
:101130007C33C2F200034FF000021A7000F06AFD27
:1011400007F10807BD4680BD80B500AF00F01AFC6E
:10115000FFF786FEFFF7B2F841F29510C0F60000E7
:101160004FF000014FF40042084BFFF78BFD41F2B6
:10117000D910C0F600004FF0000148F20102044B04
:10118000FFF780FDFFF7ECF8FEE700BFE408002062
:10119000E406002080B584B000AF78604FF0000313
:1011A000FB60FB6803F00103002B08D0FFF76CF82D
:1011B0004FF00000FFF7F0FEFFF77AF803E04FF082
:1011C0000000FFF7BFFEFB6803F10103FB604FF077
:1011D000640000F081F9E4E780B584B000AF786086
:1011E0004FF00003FB60FB6803F00103002B04D009
:1011F0004FF00100FFF7D0FE03E04FF00100FFF7D2
:10120000A1FEFB6803F10103FB604FF0640000F0F6
:1012100063F9E8E780B483B000AF78600B46FB70F9
:10122000FB78002B0CD04FF46053C4F202034FF450
:101230006052C4F20202116B7A680A431A630DE02D
:101240004FF46053C4F202034FF46052C4F202023E
:10125000116B7A686FEA02020A401A6307F10C0701
:10126000BD4680BC704700BF80B584B000AF034668
:101270003960FB71FB79132B02D94FF0010335E084
:10128000FB794FEA031240F28433C2F20003D31811
:10129000FB60FB685B7903F00F03DBB2022B02D02B
:1012A0004FF0010322E0FB68DB88002B1CD140F2E9
:1012B0000D13C2F200031B78DBB203F10103DAB2B3
:1012C00040F20D13C2F200031A70FB683A681A600C
:1012D000FB684FF00102DA80F86800F0EDF9FEF7E4
:1012E0009FFF4FF0000301E04FF00703184607F19E
:1012F0001007BD4680BD00BF80B485B000AF7860E8
:1013000039603B68002B7CD040F28033C2F200038E
:101310001B68002B09D17B683A681A6240F280335F
:10132000C2F200037A681A605FE040F28033C2F2D2
:1013300000031B68BB603B68FB6053E0FA68BB6856
:101340001B6AD31AFB60FB68002B37DABB689B6A09
:10135000002B0ED0BB689B6A7A685A62BB689A6A97
:101360007B689A627B68BA685A62BB687A689A62DC
:1013700013E040F28033C2F200031A687B685A62BD
:1013800040F28033C2F200031B687A689A6240F22E
:101390008033C2F200037A681A607B685B6A1A6A5B
:1013A000FB68D2187B681A627B685B6A7A68526A4B
:1013B000116A7A68126A8A1A1A6216E0FB68002BB0
:1013C0000DDBBB685B6A002B09D17B68BA689A6247
:1013D000BB687A685A62FA687B681A6205E0BB6883
:1013E0005B6ABB60BB68002BA8D17B684FF0020230
:1013F0005A7140F20E13C2F200034FF001021A704C
:1014000000E000BF07F11407BD4680BC704700BF75
:1014100080B483B000AF78607B689B6A002B0BD1EF
:101420007B685B6A002B07D140F28033C2F2000375
:101430004FF000021A6046E07B689B6A002B19D1CE
:101440007B685A6A40F28033C2F200031A607B68FC
:101450005B6A7A68526A116A7A68126A8A181A6232
:101460007B685B6A4FF000029A627B684FF0000273
:101470005A6228E07B685B6A002B09D17B689B6A13
:101480004FF000025A627B684FF000029A621AE045
:101490007B689B6A7A68526A5A627B685B6A7A6880
:1014A000926A9A627B685B6A7A68526A116A7A68A1
:1014B000126A8A181A627B684FF000025A627B68CF
:1014C0004FF000029A627B684FF0FF321A6207F118
:1014D0000C07BD4680BC704780B582B000AF786015
:1014E00040F20C13C2F200031B78DBB2002B02D0D7
:1014F0004FF0030332E07B68B3F1FF3F02D14FF0BE
:1015000002032BE07B68002B02D14FF0000325E0A3
:1015100040F20D13C2F200031B78DBB2002B02D0A5
:101520004FF015031AE040F20D13C2F200031B78CE
:10153000DBB203F10103DAB240F20D13C2F2000391
:101540001A7040F24433C2F200031B6818467968EF
:10155000FFF7D2FEFEF764FE4FF00003184607F1D6
:101560000807BD4680BD00BF80B582B000AF40F225
:101570008033C2F200031B687B602EE07B681B7A1D
:10158000FF2B02D0786800F005F97B68DB69002B3F
:1015900004D07B68DB69184600F0A2FC7B684FF042
:1015A000FF321A627B685A6A40F28033C2F200034B
:1015B0001A607B684FF000025A627868FFF778F98A
:1015C00040F28033C2F200031B687B607B68002B13
:1015D00003D07B684FF000029A627B68002B03D037
:1015E0007B681B6A002BC9D007F10807BD4680BD88
:1015F00080B500AF40F20D13C2F200031B78DBB2DE
:10160000012B0ED940F27C33C2F200034FF00102ED
:101610001A7040F27D33C2F200034FF001021A70DB
:1016200001E0FFF7A1FF80BD80B485B000AF4FF0AF
:101630000003FB7340F28433C2F20003BB601D4B16
:101640007B6018E0BB687A681A60BB68FA7B1A7125
:10165000BA6853794FF0040161F303035371BB6817
:1016600003F11003BB607B6803F110037B60FB7B1D
:1016700003F10103FB73FB7B122BE3D9BA685379A7
:101680004FF0040161F303035371BB684FF0000294
:101690001A60BB68FA7B1A7140F2C443C2F20003BD
:1016A00040F28432C2F200021A6007F11407BD460C
:1016B00080BC70479403002080B584B000AF786090
:1016C0007B68DB68FB60FB68002B5DD0FB685A69B8
:1016D0007B68DA607B68DB68002B04D07B68DB68A2
:1016E0004FF000029A61FB684FF000025A61FB68FC
:1016F0004FF0FF021A72FB681B6AB3F1FF3F02D082
:10170000F868FFF785FE7B685B7903F00F03DBB2B7
:10171000022B08D17B681A68FB681A617B684FF05E
:1017200000021A601FE07B685B7903F00F03DBB2F5
:10173000032B0DD17B681B68BB60BB681A68BB6854
:10174000DB884FEA8303D3181A68FB681A610AE042
:101750007B685B7903F00F03DBB2012B03D1FB68DD
:101760004FF0FF321A6140F24433C2F200031B68AB
:10177000FA689A4204D1FB684FF001025A7104E002
:10178000F868FFF795F800E000BF07F11007BD46C5
:1017900080BD00BF80B485B000AF78607B681B7AE5
:1017A0004FEA031240F28433C2F20003D318FB6005
:1017B0007B685B69002B08D17B689B69002B04D197
:1017C000FB684FF00002DA6031E07B689B69002B18
:1017D0000DD17B685B694FF000029A617B685A69A2
:1017E000FB68DA607B684FF000025A611FE07B689B
:1017F0005B69002B09D17B689B694FF000025A613D
:101800007B684FF000029A6111E07B689B697A68FF
:1018100052695A617B685B697A6892699A617B68F0
:101820004FF000029A617B684FF000025A617B68BA
:101830004FF0FF021A7207F11407BD4680BC7047D3
:1018400080B487B000AF786039604FF000037B61EF
:101850004FF000033B614FF00003FB604FF00003CB
:101860007B6186E07B694FF0010202FA03F33B6182
:101870003B681A683B691340FB60FA683B699A420F
:1018800073D17B681A687B694FEA43034FF0030109
:1018900001FA03F36FEA03031A407B681A607B685E
:1018A0001A683B681B7919467B694FEA430301FAC2
:1018B00003F31A437B681A603B681B79012B03D042
:1018C0003B681B79022B34D17B689A687B694FEAAD
:1018D00043034FF0030101FA03F36FEA03031A40D5
:1018E0007B689A607B689A683B685B7919467B697C
:1018F0004FEA430301FA03F31A437B689A607B685B
:101900005A687B699BB24FF0010101FA03F36FEA59
:1019100003031A407B685A607B685A683B689B796E
:1019200019467B699BB201FA03F39BB21A437B68A9
:101930005A607B68DA687B699BB24FEA43034FF0D9
:10194000030101FA03F36FEA03031A407B68DA60CC
:101950007B68DA683B68DB7919467B694FEA4303A9
:1019600001FA03F31A437B68DA607B6903F1010330
:101970007B617B690F2B7FF675AF07F11C07BD46B6
:1019800080BC704780B500AF4FF46D43CEF20003CA
:101990004FF46D42CEF20002D2F8882042F4700279
:1019A000C3F888204FF46053C4F202034FF460522E
:1019B000C4F20202126842F001021A604FF460534E
:1019C000C4F202034FF000029A604FF46053C4F275
:1019D00002034FF46052C4F20202126822F08472D1
:1019E00022F480321A604FF46053C4F2020343F2CF
:1019F0001002C2F200425A604FF46053C4F2020374
:101A00004FF46052C4F20202126822F480221A607B
:101A10004FF46053C4F202034FF00002DA6000F0AA
:101A200009F84FF46D43CEF200034FF000629A6064
:101A300080BD00BF80B483B000AF4FF000037B6077
:101A40004FF000033B604FF46053C4F202034FF4C5
:101A50006052C4F20202126842F480321A604FF4FB
:101A60006053C4F202031B6803F400333B607B68DD
:101A700003F101037B603B68002B03D17B68B3F566
:101A8000A04FECD14FF46053C4F202031B6803F47F
:101A90000033002B03D04FF001033B6002E04FF016
:101AA00000033B603B68012B40F0AE804FF4605375
:101AB000C4F202034FF46052C4F20202126C42F00C
:101AC00080521A644FF4E043C4F200034FF4E04242
:101AD000C4F20002126842F440421A604FF46053AC
:101AE000C4F202034FF46052C4F2020292689A6098
:101AF0004FF46053C4F202034FF46052C4F2020286
:101B0000926842F400429A604FF46053C4F20203B8
:101B10004FF46052C4F20202926842F4A0529A60FA
:101B20004FF46053C4F2020345F60822C0F240723B
:101B30005A604FF46053C4F202034FF46052C4F28F
:101B40000202126842F080721A6000BF4FF46053C4
:101B5000C4F202031B6803F00073002BF6D04FF4AD
:101B6000E043C4F200034FF4E042C4F20002126802
:101B700042F480321A6000BF4FF4E043C4F2000325
:101B80005B6803F48033002BF6D04FF4E043C4F2DB
:101B900000034FF4E042C4F20002126842F4003243
:101BA0001A6000BF4FF4E043C4F200035B6803F423
:101BB0000033002BF6D04FF47053C4F2020340F20E
:101BC00005721A604FF46053C4F202034FF460527E
:101BD000C4F20202926822F003029A604FF460534A
:101BE000C4F202034FF46052C4F20202926842F05F
:101BF00002029A6000BF4FF46053C4F202039B6874
:101C000003F00C03082BF6D107F10C07BD4680BC8E
:101C1000704700BF80B400AF62B600BFBD4680BC55
:101C2000704700BF80B400AF72B600BFBD4680BC35
:101C3000704700BFA0F1640080F30988704700BFBF
:101C4000024B1B68024A1168196070472800002087
:101C50002C0000200E4B19680E4A1268914200F0C9
:101C60000F80EFF3098020E9F00F20ED108A086063
:101C70001A601068B0EC108AB0E8F00F80F30988A1
:101C8000054B002018704EF0040EDFF810E070478E
:101C900044030020400300200D010020EDFFFFFF62
:101CA00080B584B000AF03463960FB71FB79132B1C
:101CB00002D94FF0010354E0FB794FEA031240F2DE
:101CC0008433C2F20003D318FB60FB685B7903F036
:101CD0000F03DBB2032B02D04FF0010341E0FB689E
:101CE0001B68BB60BB689A89BB685B899A4202D15A
:101CF0004FF0080335E040F20D13C2F200031B78E9
:101D0000DBB203F10103DAB240F20D13C2F20003B9
:101D10001A70BB681A68BB681B894FEA8303D31823
:101D20003A681A60BB681B8903F101039AB2BB6869
:101D30001A81BB689B8903F101039AB2BB689A813F
:101D4000BB681A89BB685B899A4203D1BB684FF0B4
:101D500000021A81F868FFF7AFFCFEF761FA4FF056
:101D60000003184607F11007BD4680BD80B584B05A
:101D700000AF0346FB7140F2C843C2F20003BB60F0
:101D8000FB791F2B02D94FF0010375E0BB689A68FD
:101D9000FB794FF0010101FA03F31340002B02D14C
:101DA0004FF0010368E0BB681A68FB794FF001014E
:101DB00001FA03F31340002B02D04FF000035BE065
:101DC000BB681A68FB794FF0010101FA03F31A436B
:101DD000BB681A6040F20D13C2F200031B78DBB23D
:101DE00003F10103DAB240F20D13C2F200031A70DC
:101DF000BB68DB68FB6038E0FB681B7C002B17D1FD
:101E0000FB689A68BB681B681A40FB689B689A422B
:101E100024D1F86800F036F8F860BB685A68FB799E
:101E20004FF0010101FA03F31340002B1AD01FE019
:101E3000FB689A68BB681B681340002B0ED0F868DB
:101E400000F020F8F860BB685A68FB794FF0010198
:101E500001FA03F31340002B06D009E0FB681B686E
:101E6000FB6002E000BF00E000BFFB68002BC3D1B5
:101E7000FEF7D6F94FF00003184607F11007BD46EC
:101E800080BD00BF80B584B000AF7860786800F096
:101E900027F87B68DB68FB60FB681B6AB3F1FF3FD8
:101EA00002D0F868FFF7B4FAFB684FF0FF32DA614E
:101EB00040F24433C2F200031B68FA689A4204D12C
:101EC000FB684FF001025A7102E0F868FEF7F0FC7F
:101ED0007B681B68184607F11007BD4680BD00BF30
:101EE00080B483B000AF78607B681B68002B12D190
:101EF0007B685B68002B0ED140F2C843C2F200033E
:101F00004FF00002DA6040F2C843C2F200034FF023
:101F100000021A612BE07B681B68002B0CD17B68E8
:101F20005A6840F2C843C2F200031A617B685B68DA
:101F30004FF000021A601AE07B685B68002B0CD13E
:101F40007B681A6840F2C843C2F20003DA607B681B
:101F50001B684FF000025A6009E07B681B687A68D2
:101F600052685A607B685B687A6812681A607B689E
:101F7000DB684FF00002DA6107F10C07BD4680BC58
:101F8000704700BF80B487B000AFF860B9607A6076
:101F90007B687B617B69A3F148037B617B694FF0C0
:101FA00080721A607B69A3F104037B61FA687B6924
:101FB0001A607B69A3F104037B617B696FF0010206
:101FC0001A607B69A3F114037B61BA687B691A60AC
:101FD0007B69A3F120037B617B69A3F140037B61F3
:101FE0007B69184607F11C07BD4680BC704700BFDF
:101FF00080B500AF40F20D13C2F200031B78DBB2D4
:1020000003F10103DAB240F20D13C2F200031A70B9
:1020100040F2E043C2F20003D3E900014FF00102B5
:102020004FF00003801841EB030140F2E043C2F29D
:102030000003C3E9000140F28033C2F200031B68D1
:10204000002B1BD040F28033C2F200031B681B6AD6
:10205000012B09D940F28033C2F200031B681A6ACF
:1020600002F1FF321A6209E040F28033C2F200034B
:102070001B684FF000021A62FFF7BAFA40F24013F1
:10208000C2F200031B68002B1BD040F24013C2F2C7
:1020900000031B685B68012B09D940F24013C2F2B0
:1020A00000031B685A6802F1FF325A6009E040F2EF
:1020B0004013C2F200031B684FF000025A60FEF7A3
:1020C0009DFB40F20E13C2F200034FF001021A70A2
:1020D000FEF7A6F880BD00BF80B584B000AF034610
:1020E000FB71FB79132B02D94FF0010337E0FB7929
:1020F0004FEA031240F28433C2F20003D318FB60AC
:10210000FB685B7903F00F03DBB2012B02D04FF0C9
:10211000010324E0FB68DA88FB681B899A4202D13C
:102120004FF006031BE040F20D13C2F200031B78D0
:10213000DBB203F10103DAB240F20D13C2F2000385
:102140001A70FB68DB8803F101039AB2FB68DA803E
:10215000F868FFF7B1FAFEF763F84FF0000318468E
:1021600007F11007BD4680BD80B483B000AF786032
:10217000FEE700BF80B483B000AF0346FB71FEE70B
:102180000000000000180240002000004000000095
:1021900000000000010000000018024000400000A4
:1021A000400000000000000004ED00E0000000100E
:0421B000FCFFFFFF32
:0400000508000000EF
:00000001FF
